:100000000C942A000C9434000C9434000C943400AA
:100010000C9434000C9434000C9434000C94340090
:100020000C9434000C9434000C9434000C94340080
:100030000C9434000C9434000C9434000C94340070
:100040000C9434000C9434000C9434000C94340060
:100050000C94340011241FBECFE5D4E0DEBFCDBF29
:100060000E9436000C9450000C94000011BA8FEFDF
:1000700087BB1DBC1CBC84E294EF9BBD8ABD1FBC2A
:100080008AE08EBD28E49CE408B604FEFDCF88B764
:10009000806188BF879902C098BBF6CF28BBF4CF98
:0400A000F894FFCF02
:00000001FF
